{
  "_format": "hh-sol-artifact-1",
  "contractName": "MatchRegistry",
  "sourceName": "contracts/MatchRegistry.sol",
  "abi": [
    {
      "inputs": [
        {
          "internalType": "address",
          "name": "_daoToken",
          "type": "address"
        },
        {
          "internalType": "uint32",
          "name": "_yesThreshold",
          "type": "uint32"
        },
        {
          "internalType": "uint32",
          "name": "_noThreshold",
          "type": "uint32"
        },
        {
          "internalType": "uint64",
          "name": "_voteDurationSeconds",
          "type": "uint64"
        }
      ],
      "stateMutability": "nonpayable",
      "type": "constructor"
    },
    {
      "inputs": [],
      "name": "AlreadyVoted",
      "type": "error"
    },
    {
      "inputs": [],
      "name": "InvalidProposal",
      "type": "error"
    },
    {
      "inputs": [],
      "name": "NotTokenHolder",
      "type": "error"
    },
    {
      "inputs": [],
      "name": "ProposalNotExpired",
      "type": "error"
    },
    {
      "inputs": [],
      "name": "ProposalNotOpen",
      "type": "error"
    },
    {
      "inputs": [],
      "name": "VotingEnded",
      "type": "error"
    },
    {
      "anonymous": false,
      "inputs": [
        {
          "indexed": true,
          "internalType": "uint256",
          "name": "matchId",
          "type": "uint256"
        },
        {
          "indexed": false,
          "internalType": "enum MatchRegistry.Status",
          "name": "status",
          "type": "uint8"
        }
      ],
      "name": "MatchFinalized",
      "type": "event"
    },
    {
      "anonymous": false,
      "inputs": [
        {
          "indexed": true,
          "internalType": "uint256",
          "name": "matchId",
          "type": "uint256"
        },
        {
          "indexed": true,
          "internalType": "address",
          "name": "userA",
          "type": "address"
        },
        {
          "indexed": true,
          "internalType": "address",
          "name": "userB",
          "type": "address"
        },
        {
          "indexed": false,
          "internalType": "bytes32",
          "name": "aiScoreHash",
          "type": "bytes32"
        },
        {
          "indexed": false,
          "internalType": "bytes32",
          "name": "metadataHash",
          "type": "bytes32"
        },
        {
          "indexed": false,
          "internalType": "uint64",
          "name": "deadline",
          "type": "uint64"
        }
      ],
      "name": "MatchProposed",
      "type": "event"
    },
    {
      "anonymous": false,
      "inputs": [
        {
          "indexed": true,
          "internalType": "uint256",
          "name": "matchId",
          "type": "uint256"
        },
        {
          "indexed": true,
          "internalType": "address",
          "name": "voter",
          "type": "address"
        },
        {
          "indexed": false,
          "internalType": "bool",
          "name": "support",
          "type": "bool"
        },
        {
          "indexed": false,
          "internalType": "uint32",
          "name": "yesVotes",
          "type": "uint32"
        },
        {
          "indexed": false,
          "internalType": "uint32",
          "name": "noVotes",
          "type": "uint32"
        }
      ],
      "name": "Voted",
      "type": "event"
    },
    {
      "inputs": [
        {
          "internalType": "uint256",
          "name": "matchId",
          "type": "uint256"
        },
        {
          "internalType": "address",
          "name": "voter",
          "type": "address"
        }
      ],
      "name": "canVote",
      "outputs": [
        {
          "internalType": "bool",
          "name": "",
          "type": "bool"
        }
      ],
      "stateMutability": "view",
      "type": "function"
    },
    {
      "inputs": [],
      "name": "daoToken",
      "outputs": [
        {
          "internalType": "contract IERC20",
          "name": "",
          "type": "address"
        }
      ],
      "stateMutability": "view",
      "type": "function"
    },
    {
      "inputs": [
        {
          "internalType": "uint256",
          "name": "matchId",
          "type": "uint256"
        }
      ],
      "name": "finalize",
      "outputs": [],
      "stateMutability": "nonpayable",
      "type": "function"
    },
    {
      "inputs": [
        {
          "internalType": "uint256",
          "name": "matchId",
          "type": "uint256"
        }
      ],
      "name": "getProposal",
      "outputs": [
        {
          "components": [
            {
              "internalType": "address",
              "name": "userA",
              "type": "address"
            },
            {
              "internalType": "address",
              "name": "userB",
              "type": "address"
            },
            {
              "internalType": "bytes32",
              "name": "aiScoreHash",
              "type": "bytes32"
            },
            {
              "internalType": "bytes32",
              "name": "metadataHash",
              "type": "bytes32"
            },
            {
              "internalType": "uint64",
              "name": "createdAt",
              "type": "uint64"
            },
            {
              "internalType": "uint64",
              "name": "deadline",
              "type": "uint64"
            },
            {
              "internalType": "uint32",
              "name": "yesVotes",
              "type": "uint32"
            },
            {
              "internalType": "uint32",
              "name": "noVotes",
              "type": "uint32"
            },
            {
              "internalType": "enum MatchRegistry.Status",
              "name": "status",
              "type": "uint8"
            }
          ],
          "internalType": "struct MatchRegistry.MatchProposal",
          "name": "",
          "type": "tuple"
        }
      ],
      "stateMutability": "view",
      "type": "function"
    },
    {
      "inputs": [
        {
          "internalType": "uint256",
          "name": "",
          "type": "uint256"
        },
        {
          "internalType": "address",
          "name": "",
          "type": "address"
        }
      ],
      "name": "hasVoted",
      "outputs": [
        {
          "internalType": "bool",
          "name": "",
          "type": "bool"
        }
      ],
      "stateMutability": "view",
      "type": "function"
    },
    {
      "inputs": [
        {
          "internalType": "uint256",
          "name": "matchId",
          "type": "uint256"
        }
      ],
      "name": "isMatchApproved",
      "outputs": [
        {
          "internalType": "bool",
          "name": "",
          "type": "bool"
        }
      ],
      "stateMutability": "view",
      "type": "function"
    },
    {
      "inputs": [],
      "name": "noThreshold",
      "outputs": [
        {
          "internalType": "uint32",
          "name": "",
          "type": "uint32"
        }
      ],
      "stateMutability": "view",
      "type": "function"
    },
    {
      "inputs": [],
      "name": "proposalCount",
      "outputs": [
        {
          "internalType": "uint256",
          "name": "",
          "type": "uint256"
        }
      ],
      "stateMutability": "view",
      "type": "function"
    },
    {
      "inputs": [
        {
          "internalType": "uint256",
          "name": "",
          "type": "uint256"
        }
      ],
      "name": "proposals",
      "outputs": [
        {
          "internalType": "address",
          "name": "userA",
          "type": "address"
        },
        {
          "internalType": "address",
          "name": "userB",
          "type": "address"
        },
        {
          "internalType": "bytes32",
          "name": "aiScoreHash",
          "type": "bytes32"
        },
        {
          "internalType": "bytes32",
          "name": "metadataHash",
          "type": "bytes32"
        },
        {
          "internalType": "uint64",
          "name": "createdAt",
          "type": "uint64"
        },
        {
          "internalType": "uint64",
          "name": "deadline",
          "type": "uint64"
        },
        {
          "internalType": "uint32",
          "name": "yesVotes",
          "type": "uint32"
        },
        {
          "internalType": "uint32",
          "name": "noVotes",
          "type": "uint32"
        },
        {
          "internalType": "enum MatchRegistry.Status",
          "name": "status",
          "type": "uint8"
        }
      ],
      "stateMutability": "view",
      "type": "function"
    },
    {
      "inputs": [
        {
          "internalType": "address",
          "name": "userB",
          "type": "address"
        },
        {
          "internalType": "bytes32",
          "name": "aiScoreHash",
          "type": "bytes32"
        },
        {
          "internalType": "bytes32",
          "name": "metadataHash",
          "type": "bytes32"
        }
      ],
      "name": "proposeMatch",
      "outputs": [
        {
          "internalType": "uint256",
          "name": "matchId",
          "type": "uint256"
        }
      ],
      "stateMutability": "nonpayable",
      "type": "function"
    },
    {
      "inputs": [
        {
          "internalType": "uint256",
          "name": "matchId",
          "type": "uint256"
        },
        {
          "internalType": "bool",
          "name": "support",
          "type": "bool"
        }
      ],
      "name": "vote",
      "outputs": [],
      "stateMutability": "nonpayable",
      "type": "function"
    },
    {
      "inputs": [],
      "name": "voteDurationSeconds",
      "outputs": [
        {
          "internalType": "uint64",
          "name": "",
          "type": "uint64"
        }
      ],
      "stateMutability": "view",
      "type": "function"
    },
    {
      "inputs": [],
      "name": "yesThreshold",
      "outputs": [
        {
          "internalType": "uint32",
          "name": "",
          "type": "uint32"
        }
      ],
      "stateMutability": "view",
      "type": "function"
    }
  ],
  "bytecode": "0x61010060405234801561001157600080fd5b5060405161118338038061118383398101604081905261003091610077565b6001600160a01b0390931660805263ffffffff91821660a0521660c0526001600160401b031660e0526100e8565b805163ffffffff8116811461007257600080fd5b919050565b6000806000806080858703121561008d57600080fd5b84516001600160a01b03811681146100a457600080fd5b93506100b26020860161005e565b92506100c06040860161005e565b60608601519092506001600160401b03811681146100dd57600080fd5b939692955090935050565b60805160a05160c05160e05161103f610144600039600081816102f501526104a80152600081816101ce0152610afb0152600081816101920152610a6b015260008181610267015281816108bf0152610cca015261103f6000f3fe608060405234801561001057600080fd5b50600436106100cf5760003560e01c806343a488cc1161008c578063c9d27afe11610066578063c9d27afe146102c1578063cdb2867b146102d4578063da35c664146102e7578063f74556bd146102f057600080fd5b806343a488cc1461024f5780634914b03014610262578063c7f758a8146102a157600080fd5b8063013cf08b146100d457806305261aea1461017857806306c033af1461018d57806307a6a321146101c95780632c4258e4146101f05780634385963214610211575b600080fd5b61015a6100e2366004610d43565b6001602081905260009182526040909120805491810154600282015460038301546004909301546001600160a01b03948516949092169290916001600160401b0380821691600160401b810490911690600160801b810463ffffffff90811691600160a01b810490911690600160c01b900460ff1689565b60405161016f99989796959493929190610d94565b60405180910390f35b61018b610186366004610d43565b61032f565b005b6101b47f000000000000000000000000000000000000000000000000000000000000000081565b60405163ffffffff909116815260200161016f565b6101b47f000000000000000000000000000000000000000000000000000000000000000081565b6102036101fe366004610e1e565b61044e565b60405190815260200161016f565b61023f61021f366004610e51565b600260209081526000928352604080842090915290825290205460ff1681565b604051901515815260200161016f565b61023f61025d366004610d43565b610698565b6102897f000000000000000000000000000000000000000000000000000000000000000081565b6040516001600160a01b03909116815260200161016f565b6102b46102af366004610d43565b6106d0565b60405161016f9190610e7d565b61018b6102cf366004610f34565b6107ed565b61023f6102e2366004610e51565b610b77565b61020360005481565b6103177f000000000000000000000000000000000000000000000000000000000000000081565b6040516001600160401b03909116815260200161016f565b6000818152600160205260408120906004820154600160c01b900460ff16600381111561035e5761035e610d5c565b1461037c5760405163049c743160e41b815260040160405180910390fd5b6004810154600160401b90046001600160401b031642116103b0576040516308251df360e41b815260040160405180910390fd5b600481015463ffffffff600160a01b82048116600160801b9092041611156103ec5760048101805460ff60c01b1916600160c01b179055610402565b60048101805460ff60c01b1916600160c11b1790555b600481015460405183917fb21c6c267c5a3609aece227ea8d6e069f2e4dc0f731e75912f1ca7519c093c789161044291600160c01b900460ff1690610f69565b60405180910390a25050565b60006001600160a01b038416158061046e57506001600160a01b03841633145b1561048c57604051631dc0650160e31b815260040160405180910390fd5b60008054908061049b83610f8d565b90915550905060006104cd7f000000000000000000000000000000000000000000000000000000000000000042610fa6565b60408051610120810182523381526001600160a01b0388166020820152908101869052606081018590526001600160401b034281166080830152821660a0820152600060c0820181905260e0820181905291925090610100820152600083815260016020818152604092839020845181546001600160a01b03199081166001600160a01b0392831617835592860151938201805490931693169290921790559082015160028201556060820151600380830191909155608083015160048301805460a086015160c087015160e08801516001600160401b039586166fffffffffffffffffffffffffffffffff1990941693909317600160401b95909216949094021767ffffffffffffffff60801b1916600160801b63ffffffff9485160263ffffffff60a01b191617600160a01b9390911692909202919091178082556101008501519260ff60c01b1990911690600160c01b90849081111561063257610632610d5c565b02179055505060408051868152602081018690526001600160401b0384168183015290516001600160a01b0388169250339185917f207fdf88f648936d2d819d893ef254d767444a45eadd109e04b0a60598abd2c99181900360600190a4509392505050565b60006001600083815260016020526040902060040154600160c01b900460ff1660038111156106c9576106c9610d5c565b1492915050565b61071d6040805161012081018252600080825260208201819052918101829052606081018290526080810182905260a0810182905260c0810182905260e081018290529061010082015290565b60008281526001602081815260409283902083516101208101855281546001600160a01b0390811682529382015490931691830191909152600281015492820192909252600380830154606083015260048301546001600160401b038082166080850152600160401b82041660a0840152600160801b810463ffffffff90811660c0850152600160a01b82041660e0840152919291610100840191600160c01b90910460ff16908111156107d3576107d3610d5c565b60038111156107e4576107e4610d5c565b90525092915050565b6000828152600160205260408120906004820154600160c01b900460ff16600381111561081c5761081c610d5c565b1461083a5760405163049c743160e41b815260040160405180910390fd5b6004810154600160401b90046001600160401b031642111561086f57604051637a19ed0560e01b815260040160405180910390fd5b600083815260026020908152604080832033845290915290205460ff16156108aa57604051637c9a1cf960e01b815260040160405180910390fd5b6040516370a0823160e01b81523360048201527f00000000000000000000000000000000000000000000000000000000000000006001600160a01b0316906370a0823190602401602060405180830381865afa15801561090e573d6000803e3d6000fd5b505050506040513d601f19601f820116820180604052508101906109329190610fcd565b6000036109525760405163e131a43f60e01b815260040160405180910390fd5b60008381526002602090815260408083203384529091529020805460ff1916600117905581156109bf57600481018054600160801b900463ffffffff1690601061099b83610fe6565b91906101000a81548163ffffffff021916908363ffffffff160217905550506109fe565b600481018054600160a01b900463ffffffff169060146109de83610fe6565b91906101000a81548163ffffffff021916908363ffffffff160217905550505b600481015460408051841515815263ffffffff600160801b840481166020830152600160a01b90930490921690820152339084907f6dc1b06bc1dbf44e51a1335ada376f6a896c93405a0fd93eea0a61ee3c0decdb9060600160405180910390a3600481015463ffffffff7f00000000000000000000000000000000000000000000000000000000000000008116600160801b9092041610610aef5760048101805460ff60c01b1916600160c01b17905560405183907fb21c6c267c5a3609aece227ea8d6e069f2e4dc0f731e75912f1ca7519c093c7890610ae290600190610f69565b60405180910390a2505050565b600481015463ffffffff7f00000000000000000000000000000000000000000000000000000000000000008116600160a01b9092041610610b725760048101805460ff60c01b1916600160c11b17905560405183907fb21c6c267c5a3609aece227ea8d6e069f2e4dc0f731e75912f1ca7519c093c7890610ae290600290610f69565b505050565b600082815260016020818152604080842081516101208101835281546001600160a01b0390811682529482015490941692840192909252600282015490830152600380820154606084015260048201546001600160401b038082166080860152600160401b82041660a085015263ffffffff600160801b8204811660c0860152600160a01b82041660e08501528493929161010084019160ff600160c01b9091041690811115610c2957610c29610d5c565b6003811115610c3a57610c3a610d5c565b905250905060008161010001516003811115610c5857610c58610d5c565b148015610c7257508060a001516001600160401b03164211155b8015610ca1575060008481526002602090815260408083206001600160a01b038716845290915290205460ff16155b8015610d3957506040516370a0823160e01b81526001600160a01b0384811660048301526000917f0000000000000000000000000000000000000000000000000000000000000000909116906370a0823190602401602060405180830381865afa158015610d13573d6000803e3d6000fd5b505050506040513d601f19601f82011682018060405250810190610d379190610fcd565b115b9150505b92915050565b600060208284031215610d5557600080fd5b5035919050565b634e487b7160e01b600052602160045260246000fd5b60048110610d9057634e487b7160e01b600052602160045260246000fd5b9052565b6001600160a01b038a811682528916602082015260408101889052606081018790526001600160401b038681166080830152851660a082015263ffffffff84811660c0830152831660e08201526101208101610df4610100830184610d72565b9a9950505050505050505050565b80356001600160a01b0381168114610e1957600080fd5b919050565b600080600060608486031215610e3357600080fd5b610e3c84610e02565b95602085013595506040909401359392505050565b60008060408385031215610e6457600080fd5b82359150610e7460208401610e02565b90509250929050565b81516001600160a01b039081168252602080840151909116908201526040808301519082015260608083015190820152608080830151610120830191610ecd908401826001600160401b03169052565b5060a0830151610ee860a08401826001600160401b03169052565b5060c0830151610f0060c084018263ffffffff169052565b5060e0830151610f1860e084018263ffffffff169052565b5061010080840151610f2c82850182610d72565b505092915050565b60008060408385031215610f4757600080fd5b8235915060208301358015158114610f5e57600080fd5b809150509250929050565b60208101610d3d8284610d72565b634e487b7160e01b600052601160045260246000fd5b600060018201610f9f57610f9f610f77565b5060010190565b6001600160401b03818116838216019080821115610fc657610fc6610f77565b5092915050565b600060208284031215610fdf57600080fd5b5051919050565b600063ffffffff808316818103610fff57610fff610f77565b600101939250505056fea2646970667358221220a8566e853df37abfa3ac58aa4cec9933faca14fca1eb3a03149d68250e9bf5dc64736f6c63430008140033",
  "linkReferences": {},
  "deployedLinkReferences": {}
}